:100000000C943B100C9458100C9458100C945810ED
:100010000C9458100C9458100C9458100C945810C0
:100020000C9453130C9458100C9458100C945810B2
:100030000C9458100C94F2120C9458100C94581004
:100040000C94B5130C9458100C9458100C94581030
:100050000C9458100C9458100C9458100C94581080
:100060000C9458100C9484120C9458100C94581042
:100070000C9458100C945810524C4A5A594C6A63BC
:10008000666A663874344E5A56716C4D41494C421A
:100090004C42354C3037484D7875486B5569764A37
:1000A0004B42784770782B587051593431544B5A21
:1000B00046496A2F3576456B41676E6A3648594125
:1000C00078627A655A2B7353514B53555957687759
:1000D0004567305A4A55706B6271653043394750F5
:1000E0005371304B685236506D784855616A5847A5
:1000F0003479334B35533658322B68584F75657603
:10010000527959773163786D667A712B456E4E6CF2
:100110006F67696E776874524F4558642F316E77F8
:1001200074414E2B386750642F6961776C57793270
:100130006C3837454C374545547637636F2F636EBF
:10014000673852424D5434664834706D2F67586595
:100150006F39544A39647A754F78697652746D777D
:10016000464E4D5752746B773144506D7669584FF7
:100170007139424C2B6142516A6C51617334543570
:10018000482B525546693635344B736137442F58E6
:100190005559755572656651627252514C336F6F85
:1001A0006B4F2B30416C534F6E67516E455331305E
:1001B00032774C7930625461394772316B347463F1
:1001C00051336B7175594B4F73373157444C414A1A
:1001D0004A324D7A6D30736946336550536F7630CD
:1001E00038354832737A63674141686B2F365672EF
:1001F000664B49374E63774A64456F784F373853BB
:10020000726A50625678584E42466F6C4A356B643B
:10021000343248753531587837486137684D786AD7
:100220004D497A4D2B6D396B39744D68327864477E
:1002300062416F62596A4645424246556A4E57329C
:100240002F6337777848466B464A6D51626953533E
:1002500037376863434A63586358666E6959735AFF
:1002600064716A555444564768593061712B584E31
:10027000476731614C63706C616A66654F384D6EDB
:10028000526946586F6C50566F6C4E5534764D48D7
:1002900053716373582F454146676C394B42617403
:1002A0004856435030476F6451714F6B486F3077F9
:1002B000436470476C5456327034307143647264D6
:1002C000726C563276774863366E646E3679744A4D
:1002D0002F48792B327A4E4665722B4447644A7018
:1002E0006244516143647074626A58473536304BDA
:1002F0004164357637796C4949354C4A5035784FE9
:100300006F493862566E5336326A4B5A6C386A6B94
:1003100039586E6764376A6361546448654750743E
:100320004C52565772416E5961376262746F524334
:100330004A73786D4E45582B654F4F746A63572B3F
:1003400032444E462B662B6A6970704E66623043AB
:100350006870784F49452F37706F7A473543334B74
:10036000597537336F492B62466C5371556E593747
:10037000526E772B6D4250564D5A75526B30716CE0
:100380006955662F70413361617572316F56503116
:10039000495A4D565553744A2F33792B324C4F4698
:1003A0006D552F377067794752503269566E513606
:1003B000476C49707A2B5279766F42414A784149AD
:1003C00067384C687131597254766A38667A3944A4
:1003D0002B364A78637A713946596B3469386244EE
:1003E0004B6B7146696B64663443334B596D3433E0
:1003F00051502B6A437472744C5A57577A4C6B4164
:10040000423442414A784349772B4A7859374A5A0D
:10041000647A6963536163505848486B64546C4113
:100420004A78434951364A5238336F3978654573B3
:100430006B557435353341346D30366E69427452C4
:1004400039336F397875474A3065734D5479513374
:100450004346674A6B457435353341346D30366EEB
:100460004346767849784B4A6E30796D5648586DD8
:10047000394B574F5148396A617572316F644F314A
:1004800041514E4664546C597056437756697156C3
:100490006B637335527941516A385469646D53798D
:1004A000587642344F353750764947635353665038
:1004B000764148636162634832374F464859387A1B
:1004C00031725479616D6F64524B4D6C5879314B78
:1004D0006F6F3548654F4F74445156654B4D7535B8
:1004E000423444415A7A41596938626A716F7046A0
:1004F0002B66386A796A6F6431656D6F302B7231A3
:1005000049524E56385874683633613768707A4F9E
:10051000344B384C587642344F3537505045483874
:100520002B582F6A716F72467556397A346936586E
:10053000454E6533674A2B546B70624C506B436772
:1005400056366855714E5732586E464574646B5135
:100550004877776D684A32797A6A67384377662FC9
:1005600073515865364B754A6E30796D5650556DDE
:1005700046465632504546384F5A2B546B70624CA3
:10058000766F4441352F4234753134767A446E416A
:100590005A7A435953365A5463755A7A34713758D4
:1005A00073496366314458475A4F3271556E593713
:1005B000786A7965794C7542473435482B434E4EFD
:1005C000666230436868774F67423954636D617A79
:1005D0004174377672496B594359624450304B4CE1
:1005E0006930614A6970706E6554316F7051794736
:1005F000784C324352767A2B654F4D747A65557537
:10060000454E6533414E2B7A67703750504D473811
:1006100032652B726A706A4D34584E6C615466486C
:1006200075414E6464546C414A3542496F6C4B705D
:100630006963544B646D516148744441385072563B
:100640006F5648302F663269317252614B73706C4D
:100650003666636E5350736853795954306A6162D9
:10066000467454716375627A6F67344857504F6CA3
:100670006963632F525030696C70544B596D343339
:1006800051502B6A6970724E50523153726F6845E7
:10069000706445306E553136756749425779365822
:1006A0006B4A63583172654847644F5367634D61C5
:1006B000524B477252364F4E485930616968714EFD
:1006C0006E553136756F4A422B2F352F3543314BDE
:1006D0006F6F35482B4B4F4E48513161716F7246E9
:1006E0004F5A2B5445745A726275683050523153C8
:1006F0004C6B696B31656B6F6B38706C6162654810
:100700006D4250564D5274526337726474646B7705
:1007100048347A47354B324B5176372F4A4531367C
:100720004F734C684B355A4C2F7142514C52514BC0
:100730006835372F504D454D6D632B4C416C7965B5
:10074000307A664875494F646C636D345736375854
:10075000734166664E4D572B324C4D4632572F72C1
:100760004C736A6B39586C67743167736B6375359A
:1007700042774341783241776E30776D464E57323B
:100780005848486B39666B676C30676B6C636D34C7
:1007900057363758734166664E4D552B47464E3196
:1007A00059624D465761384C586E433432323433B7
:1007B00051502B6A437470743658586D3936564A06
:1007C00067422B5573676245476C4A755479545696
:1007D0007A6A6862435165597441575A364B744F6F
:1007E000332B7978664F4872314F76756A55536965
:1007F000316A51616970704E2F5831694E73526978
:100800004E735469396953537A726A636154644808
:1008100065474E743758566D74415865364B754A66
:100820006E30776D6C425857624F6B6F45776F46ED
:1008300032652B7244746A73635474426537376649
:100840007449576553507368537961546B705A4CAF
:100850002F714451372F52364F734A68617A616263
:100860006C70524B6F6F35482B434E4E665433437A
:100870005A757A322F4B454D415150644E356D516A
:100880007975527950734467643768634B52645882
:1008900038436450664746734D5A735255797156C2
:1008A0006B5576357031436F557971566B5574358C
:1008B000353341346D38376E4B4576354A7841498A
:1008C00041774B42473437484F554E395937456A7F
:1008D000425947375353666F767748373758646EB7
:1008E00061477470372F523650384C6871566150DA
:1008F0006A68696F7757504A726455536E424677FB
:100900004C35577979626B416838446739336738B9
:100910006D632B376868794F774C384433374C5ABE
:10092000745667596B55744E3533414D6D38375495
:100930004B4D734E5261446B366E51616D704C700D
:100940007639784F4D456466354B3071416C365081
:1009500069706D777A755279506B41674677674554
:10096000686345386D552F37706F7847704932612D
:10097000537670395A6247455253464D4952505644
:100980007364757867304968536162544E305935E5
:100990005376706E5A6245656763476D326D397282
:1009A00062756A30666232435276782B4F4D4D390C
:1009B00078574873635474422B33342F5250326942
:1009C000567652367567494257363558634F6576C5
:1009D0006A4A6B5144775143426C7975304C634895
:1009E00032444E4665542F44756F4C427539357606
:1009F00062476C6F73397074625458473543314B9A
:100A0000496B346E534876687156597279376A3833
:100A100036586448614F754A6A3854436475545374
:100A2000666D435157617A3262656D6F302B72315A
:100A3000495250567364757867384C68714E5A72D3
:100A40003669674D44515847614F737879755271D3
:100A5000504D4467393367386D632B37426C797575
:100A60003044664875514E64637A6E6F5A7A4177A6
:100A70006938624C4B63724E726463335148396A11
:100A800036696F56305776704C35544B596D343348
:100A90005148393736696F4E306575786A3051364E
:100AA0006C6853537872354864325875634766767C
:100AB00072416E5961375A62396951536A68674D9C
:100AC00067554E395A6247455261474D77654D74B7
:100AD0007A6555756B4264586347667672416E5904
:100AE000363361376868794F51482F6A716F7246A3
:100AF00075562F7A496B366E434E757841344A42AB
:100B0000657A3466314456474A453136756F4A42F4
:100B10002B33362F424633792F714451627A51611B
:100B200069686F4E336530714574627272676945EA
:100B300078574873385876684B705A4C2B4B445151
:100B40003733513647644A70617A5178436C6F4746
:100B50007A5758463953666B766F456343516666DC
:100B60004E4D552B6D4A4D565561734A332B783295
:100B700076494563435164663943564F49452F379B
:100B8000706F7A47354B304B416C34767A4C6D41FF
:100B9000523642514C35544B596D3433774C2B44BB
:100BA0006D68494A333279325848466B4E526E511D
:100BB00061545161697871616E6330746D354C6553
:100BC0004F52794F51502B6A69686F4E33753271AD
:100BD000316A61786C6851676768366C6D5A452B6D
:100BE00044775875364B7335333277476E4A4555DF
:100BF0006A63572B5748506C4B5A655845466633C5
:100C0000494D2B376868774F414E387A776A366698
:100C1000464E55326E42465572645532484646300D
:100C200076563379666D41774877794751663269F0
:100C3000314C527171676F3157613837587644348F
:100C400065373566394B554F41462F7A6F673648C1
:100C5000474E4F3167555039705646307664327979
:100C6000586E4134473435482B434E5966623258EA
:100C7000786A794C794474552B3336714164326EFD
:100C800033444359792B5A7A596D363367422F547E
:100C9000736F624475674B426D38356E3643744AE4
:100CA0002F2F782B4F454E393558466B74566E773B
:100CB000663778657141765A743968734D52765249
:100CC000733970743758586D644F57755550636E4B
:100CD000794476427564357636616C4441774C4B85
:100CE0006D3035737944734B2B3335305266317028
:100CF0006B4A544B346936586B4A655845466433E1
:100D000059472F72726F68454A5248556254564788
:100D1000704131614B73726C71646333774C2B4457
:100D20006D68494A332B78325045483865542F4412
:100D30004F6B4B684377594432724C5A7431677326
:100D40006B5576357031436F557971566B557435E7
:100D5000352F44346537356664475675734164668C
:100D60003943564F6F493862316A51614374707428
:100D700062545647704930616970724E76563379C5
:100D80002F7142514B70524B6F413448324C4F4699
:100D90004751396264755279506B4367567969558A
:100DA0007A655575454E6533674A385430725A62D4
:100DB00039715453377168554C525857374B6B49FA
:100DC00067384C6871395A2B627568687664306E82
:100DD0004874423973747034617A58475A65326185
:100DE000314C5A6239715253726769455253464DBC
:100DF0006F644D3151534E4E2F663069466C5171C0
:100E0000456C59727A726A633666656E434E7578C0
:100E100067304B6869385A6A36696F565561754A4A
:100E20006E38786D74415865614F73705436545301
:100E300037716A553758566D4E4D572B57504F6C7A
:100E400043596366314458475A4F3271306A596288
:100E500031725461614F703135504F56436F657632
:100E600045465832664746737364757867384C68F0
:100E700071395A72376967554459556569427652D6
:100E80004D35704E665433435A7578327649456312
:100E90004477666674595855534873723648627879
:100EA000416C7975304C6548474E4D3151614F4E1C
:100EB000485131614B556F6C546166506E4A4655CE
:100EC00044515765364B734A332B7A322F43484D82
:100ED0003458506C71646533674239546375627A73
:100EE000706736486D784D5663627442577935584D
:100EF000304C6648474E503168454F397031463066
:100F000076563179506B43673132673048513161E1
:100F10004B6B716C43596366314458475A47337180
:100F2000387162547367614447744C704C78534B0A
:100F3000516E362F424633792F69435154365453FC
:100F40003771685572645732334448455A5448459E
:100F50005A6247455253464D495A4F566B63733553
:100F6000782B44772F33772B6D4A4D56306573704D
:100F70007A3251796E704449597A495A312B6A3024
:100F80002F663269566E5336326A4B5A6C55696B0E
:100F9000304F6B6F45776F465753394C656D4377CC
:100FA000584B774272416D506162614D4D305169CD
:100FB00046745271736F624450304B6869555A6B76
:100FC0007972716174646C3348777A425248326C3A
:100FD000396951536A68674D67554E393566476BB5
:100FE00056536C496F394C7072395471636D617A24
:100FF0006770375076774663725664583443397257
:10100000667542517631774F454E63585258394490
:10101000364371566B6373355236445162375461AF
:101020003671725673567478342F4A3535334334DB
:1010300032323633674A385430725A6264755479A2
:10104000666D4177487779475250306946745471DC
:10105000636D617A416C367644466C77507878657A
:1010600067422B444D6B627A436C72394467574F29
:10107000624776704C78514B416C367644466D69C8
:101080002F2F777350554D76352F476B56616D492D
:101090007732497851364A52637A716446516C59B5
:1010A0004B35624C76674341523644513750543683
:1010B0002F694A57553671537364763241774C47DE
:1010C00047773541587650696945662F4A4D303625
:1010D0006D704C4A5078774F67703854317A61722E
:1010E0006C685336776A3676464E574758504755A0
:1010F00030476C594D5A724E76563179766F44416D
:10110000352F4434653737664E4D575A57504F4345
:1011100043596534464E57525833464473646B778F
:10112000483478474A4D323657764C354A3544492B
:1011300034334935527943517A2B5279506B416798
:1011400046516745674546637556395434713733A0
:101150004D456466354B3271787A362F466C58327D
:1011600066474873636275424777344832444E4657
:101170006562384432724C5A4E35684D49524E566B
:1011800038667368792B627A6F6F3548654750749B
:101190004C5A575754486C67743169735553744AA5
:1011A0002F2F782B75414E6439666D67312B6A306D
:1011B0002F583369396953537A726A633658666EA9
:1011C0004B4D7335523644513733513647744C705A
:1011D000723151716B705A4C66754477657A7965D6
:1011E000797A74552B333471524831334E6B533303
:1011F00056335176484649707A3251794874446F73
:10120000382F72394A5246554C5256574C4D6D3410
:1012100057793658454E633351502B6A4374716D7C
:10122000725657396647476E386676716A305A6F1C
:101230007A4C72644D5A6D715479516F6A426732BB
:1012400042494D6456616D4977324B786730496841
:10125000792B5A7A59753533344B384C586E4134A2
:101260006D38376E7149735A313269303357337183
:1012700038715A546375627A6F6734483244504605
:101280005042395463475954522F35663571324BA9
:10129000516E342F784C324352767A2B654F4D7411
:1012A0007A6555756B4A6558454E6333774C2B44C8
:1012B00047744C70723151716B70624C507344675B
:1012C000647A676343596366314456474A45333607
:1012D0002B714C5273316F747A655775304C63487B
:1012E000324C4D465761384C586E43345779365816
:1012F00045466633494D2B37426C79753044664814
:101300007541506474566C775078794F774C2B4404
:101310006D704C4A76397A75384B65504874473051
:10132000324F30716B68614C6D684149674D4A4A74
:10133000362F5A545A757865504548552B332F4CE3
:1013400072776F4657612B4C4874426F73316F74DC
:101350005453564F6F413977396951356A68696E10
:1013600051614D6D57793368592B37336F492B6273
:10137000466C5371306A6162466C537155766237C0
:101380004A73786D4E45582B2B43504E7656317923
:10139000506B4167463468454A5A47557A65586DDF
:1013A00055506676694A745A302B71394A35506403
:1013B0004541745A39336938325739726275683029
:1013C000505A32537A726A6361626548476C503191
:1013D0004A424F5674567578705649705336534387
:1013E000612B696B2F2F306946745471636D597A84
:1013F0005148342F775432425A75773176414766D7
:101400003666666B69687353396E6F395279484D29
:101410005A444D552F586D7971597846664C6B4436
:101420003244517956366A553766586C5648556C71
:101430004E45573965474D7562625747784C324380
:1014400052767A2B2B4B4D4E3365327156336137C2
:10145000684A783570593873565053712B694A422F
:10146000316D786C77325674625450473453314B37
:101470006F41346B575057474441463839714F4F8D
:1014800077442F4450734A686144614C46744C362B
:101490006475446A6F516948474E4F3167634D39EF
:1014A00078574873636275426D4D376E724175446B
:1014B00074466A325661754A484978476F413168C7
:1014C0007159702B2F58396A366971566B55313501
:1014D0005A375A594B5A5A4C6532443633577A3830
:1014E0003262454568634738326538727A6A6763A5
:1014F000435963665648586D644F57753054664873
:10150000766F4D3856616D705169497756617056E6
:10151000385876684B355A4C666D4377332B7A32A0
:101520006647465573647578417749425779345810
:10153000304C634857504D6C796565766A426E5100
:10154000627A5161436C71746A55562B75494F64C8
:1015500045416C59716462344C6B693355436C621C
:10156000495A4A4A2F336F2B6D4A57564559735A79
:10157000302B6830766C3079756F4141704E433650
:10158000643771504E706C44447752526770776480
:101590004938383778727A6561477670723151719F
:1015A000456C59727A5467636A55636E3579325364
:1015B000357137584D4D652F424E32795876623429
:1015C0002B2F352F354B304B4146677653662F779F
:1015D0003157376B5743764B592B353335712F5471
:1015E000487441774D687A566D30752F6575513066
:1015F00059374B63743967704D5A765545346F418E
:1016000065622F476D704B4D76397972384B636147
:10161000334C63524259634A69556671704932616D
:1016200054487739524B645A42775749744E387749
:101630006E38786D4E45562B76594F6446346B7430
:10164000446F623275494C424F783450334C4545B3
:10165000414945636930636F5957323938436154A2
:1016600046316172444E6A57644C7337586135583D
:1016700038366361334C47525253485A34584E7788
:1016800062626353572F4D6C535366505045463832
:101690007556397A5975353334432F4C766F44413A
:1016A0005A7A43597947597A78723463642B58745B
:1016B000314464482B694E4E654C31434274777512
:1016C0004D6B652F49553136756F4C424F7834500C
:1016D000334448453558486B64626B4168734267D0
:1016E0004D5A6A6634664D32534B6563476C4830D9
:1016F0002F6630696C70544B597537336F493862B7
:10170000566E5439326A4A4A313269305853314B35
:101710006F6F3458654F50394451554F4B45737076
:101720003533446F322B366E6F49394C566E5471D7
:1017300058484A70786D4377332B7A322F4B454D9A
:1017400041514E64634C6D4152614155716C52750B
:10175000454E596A36796A63792B55754531656608
:101760006F49397A306A5279695A724E5052315300
:1017700072676945786545734567745A382F6737CE
:101780004F682B557467594457584B35417744453A
:101790005279425544495147496B776D6C4A5757C6
:1017A0007A4C6D4152794151445952436F347752CA
:1017B0004A733374582F4C357056436F56697056C0
:1017C0005561744A5853785769526E51627A536121
:1017D000796A716446596B5969735A6A3743725210
:1017E0006B457339595444507975616B4A4D374193
:1017F0007141742B39766A62667A2F444F734C3587
:1018000071395A7A627568735052314B4C73673034
:101810004E5A6C416A305479566E547158484B3563
:10182000426744587757426E486F7847704133613A
:10183000366971564551745A647A67636955642FE5
:101840005A47317173676144476C497053715453FF
:1018500037436847694D5873576E4E6C61626548EF
:10186000474E4D3151534E4E2B5831694E555233E0
:101870006B7051666F59374875414E6439586E67C1
:1018800064376A63617265486E4A4E563065767099
:101890006A3052696C68544B775435665550556DB3
:1018A000464E55326E4248553766556D464E553256
:1018B000486C46304F4A31616A426A45784F4E4A19
:1018C0007A57554B736F66374556563250454838F0
:1018D0002B582F6A4B73706C3666656E436475784F
:1018E00068554A6D796D623042463676444E6D7762
:1018F000333277326E4A47555453564F494D2F3540
:10190000426C78736C70655845646365774C2B71D5
:101910006E4A4A672F6E792B324450464F5A3854DC
:10192000306A61626C68514B42393776726F6C4D28
:10193000446F595865474B7841344A422F6E362FD1
:1019400068703156433967724D3575526C73706CDF
:101950006137633332444E31664C2B7A474E4A70BE
:10196000372F52364F734C684B78614C4874446F34
:1019700039337139426F46566A636432783730437F
:101980006852714F78446B6B655752575279515278
:10199000302B72316F644D315169504E4F52324786
:1019A0006265676775563179766F4441352F4234E9
:1019B0004F7836506E4246554C52585762476C6FBE
:1019C000733171746963572B327A4E6C2B586E44A5
:1019D0004C38784662374548323757514759384F67
:1019E000316A495069687759322B302F4646437225
:1019F0006A42377352794D742F48326939714C53AA
:101A00003643345544494E4F6A68765273747A4966
:101A100072564E5476494563435965666C42585731
:101A200037716B4942674C4B4741354D33724D46D8
:101A300033472F517259352F495264554C5A4F57DD
:101A400054486C674E356A4D3550576C4377484F54
:101A500074415050626D7634726C49716B68614CA0
:101A6000474E446F3876726F70564668505A324807
:101A70007A7A674A6A38632F784C324378447765BC
:101A80006A5A7342302B706C596A505650522F5418
:101A900073675944576E4B35676B41676C55682BBC
:101AA0006B306D6966543666466C58586647484ECA
:101AB00039337441367662374A6B776D46465875CE
:101AC0002F61455568304E395A62474578574673FD
:101AD000737473787832494B52794B716C55716CD1
:101AE0004451654D7441554E7249334B6C45366BCC
:101AF00056613849426749425753697745466651AE
:101B0000706F2B386C78534B516E362F42643352C2
:101B1000324C434C36585A6F77377A65364B734A96
:101B2000332B78327641486361546448654750747A
:101B300072565832664F63734559305A31326730A6
:101B4000473473616935794976647633586E4370EA
:101B500057716A474E6B482F4A4D7536326A4B5A59
:101B60006C45696B305739544E787932486F7561DE
:101B7000796A71646B556E346544374545645874B1
:101B800033724745774746737331744B59374A6907
:101B90006362356E4B4A4558304C454857504D6C42
:101BA00053536650504548382B332F6A4C38725483
:101BB000715664425932396461756852766432589C
:101BC000336A41394377616D6E354A732F58772BED
:101BD0006D4250564E787452636A6F6E31656D6F08
:101BE00030326F3151614F4E6E5533362B694B5247
:101BF0004549724676562B6A7067375847394F31D8
:101C000067634D395253464D495250567356767854
:101C10004978494A332B7832504D473832576C72E5
:101C2000377137556262554768423353625769309E
:101C3000325730764E73596D616572316F5650313F
:101C40006F644D3151614F4E6E633236326A4B5A7A
:101C50006C30676B466F6B5944345A342F364A7177
:101C600038667039342F456B6C4D6E643265345371
:101C70003561384C33724459617A61626C70544BEF
:101C8000596D363367422F5473675944326A495A43
:101C9000313269305869764B356968665548457602
:101CA000614F76686A5552716B35544B34713758B1
:101CB0004D45642F354B324B5176352F5A4F30718D
:101CC0006C355A4C664F425250357A765947394BEB
:101CD000626D6956574331726F49374875494D6493
:101CE00031656D6F5579704E314775784B5A544B4D
:101CF00034613448387166666D52485562545647AF
:101D00004A4D30366D684B4A4834704770413361F4
:101D100061757231495A4D565561734A3332793281
:101D20003344464570644530485932617972706475
:101D300064626B4168304167456F68454942455769
:101D40004B52585762476C6F73396F6D626A554ECC
:101D500049453136756749423232363367422F542E
:101D6000736761446D704C4A76397A7538436450B4
:101D7000664748736354334276566776546E2B72C7
:101D80003866373865626B44577654357039426F20
:101D900073316F745461554F67422F54736F5A44B7
:101DA00065754C416F3149595479536A7A726A7436
:101DB0003666656E6942745263377064396E6C675B
:101DC0004D356A32352F4D66794F662F43466D6724
:101DD0002F507A2B654F4D747A6557755550476E65
:101DE000436C3378706C5439436F5157704978475E
:101DF00070493261536E6F395279484D5A444D41A2
:101E00002F50396D794C72644D356B516A6B526E3F
:101E10006C685450512F36364973303647744A70C7
:101E2000623752614B6B796C6A38452F785476670C
:101E30005A757A556647464F744E755467554968CA
:101E40007932617A416C36766A426E51627A5161BA
:101E50006968714E6E6330366D704A4A66377065D8
:101E60004B63753541514333784F42487539787526
:101E70007349456631445647704973616968794EC4
:101E80006E6330366D68534A483478477049326122
:101E900079727A6474746B774767785541743079D6
:101EA0004746596F4549794350356D546C4A434113
:101EB0005073617238586A335879394C66474353C6
:101EC00033326F556E4A63324459585079447551D4
:101ED0007556352B53586B314E35675A6F564D67D3
:101EE0005A544D51656A394465754A7834334B35D7
:101EF0006830436756436755695557372B614E49DC
:101F0000322B32715576623770677747684A3053A3
:101F10006A70684D6F565031495A4D56305774703B
:101F2000372F52364F734A68617A59623172546161
:101F3000616D713167555039706445306E6330366C
:101F40006D68494A33327732484E47305853334BE5
:101F5000347137584D4D632F52483369397152539C
:101F60004B73686B4E706B6E696352694E30527979
:101F70006B685261675234505733466B4D686C51F1
:101F80004B4A544B35613558397964502B36454DA1
:101F9000426F4F64456F6D597A4F5A7A5A6537339D
:101FA00070343862555851366E5A4A4A654C7865D5
:101FB0004C38733577474377324779323237474564
:101FC0005171454D426F4D6430756B6F6C4D726C45
:101FD000726C663370343862555851366E524B4AC3
:101FE000474177474131337965654277754E78755A
:101FF00074346366307A58473436304B42563676FE
:1020000069786E5161445161446472744B685857E9
:1020100036366D49524B4A523950723949704755DC
:102020007975557546316633703438625558533674
:102030005858493551434151434952436F597847A4
:102040004930313650554968544361546C52594CAB
:1020500032544359544B6254745161446E524B4A4A
:1020600047417947512F3269306254613761725666
:10207000746C7678000011241FBECFEFCDBFDFE374
:10208000DEBF18E3A0E0B8E3E7E8FBE202C005909A
:102090000D92A830B107D9F728E3A8E0B8E301C052
:1020A0001D92AC32B207E1F70E94CD130C9491154A
:1020B0000C940000AC0190E0FA01E90FF11D2081C1
:1020C000211101C008959F5F8091040885FFFCCF16
:1020D00020930208F1CF982F92959F709093223809
:1020E0008F7080932138089581E080932504E6E184
:1020F000F8E3818180931938E2812E2F22952F7089
:1021000020931E38EF7084E0E89FF0011124EA5D0F
:10211000F44580819181A281B38104C0B695A795D1
:10212000979587952A95D2F780931A3890931B3804
:10213000A0931C38B0931D380895409101385091F8
:102140000238609103387091043880910138909181
:102150000238A0910338B0910438B695A7959795A9
:1021600087958093013890930238A0930338B093F9
:10217000043840FF18C08091013890910238A09136
:102180000338B09104382CE5822723ED92272CEBFD
:10219000A22724EBB2278093013890930238A093B2
:1021A0000338B09304380895982F8FEB890F8A3144
:1021B000B0F08FE9890F8A3118F489EB890F0895FF
:1021C00080ED890F8A3010F484E0F8CF9B3221F043
:1021D0009F3221F08FEF08958EE308958FE30895E5
:1021E0008F929F92AF92BF92CF92DF92EF92FF9227
:1021F0000F931F93CF93DF9380912938811109C0EA
:1022000080911338811105C081E080930638809356
:102210001338C0911038D0911138FE01E858FF4FA3
:1022200085909590A590B490882D0E94D410F82E9A
:10223000892D0E94D410C82E8A2D0E94D410182FE8
:102240008B2D0E94D41094E0F99EA00111245527F3
:102250009C2D92959370492B052E000C660B770BE5
:10226000BA0155274427E0E1CE9E60011124DD2408
:10227000912F969596959F70C92A0D2C000CEE080B
:10228000FF08FE2CED2CDC2CCC244C295D296E297A
:10229000F0E41F9F9001112433278F73F901E82B7D
:1022A000CF01092E000CAA0BBB0B842B952BA62B60
:1022B000A0930D3890930E3880930F380DE018E3FB
:1022C00036E1E32E38E3F32E809101389091023805
:1022D000A0910338B0910438F80121918F01822731
:1022E000F70181937F010E949D10F8E300311F07E1
:1022F00059F780911638809329382496C093103866
:10230000D0931138DF91CF911F910F91FF90EF90F3
:10231000DF90CF90BF90AF909F908F900895CF9314
:10232000DF938091040887FFFCCF90910008C09153
:102330001438D0911538C130D105E1F040F0239721
:1023400009F4A4C0109214381092153810C09C35AE
:10235000C9F78091040887FFFCCF809100088C3575
:1023600089F781E090E08093143890931538DF91DD
:10237000CF9108959937B1F48AE79BEA0E945A10E9
:1023800081E0809328381092263810922738809167
:1023900020048062809320048091260480628093D0
:1023A0002604D0CF209124383091253821153105CD
:1023B000F1F4933749F48AE79BEA0E945A10C093DC
:1023C0002438D0932538BECF943759F48AE79BEA56
:1023D0000E945A1082E090E0809324389093253830
:1023E000B1CF993609F07AC083E090E0BCCF2130BC
:1023F000310509F045C09536B1F48AE79BEA0E94A1
:102400005A101092143810921538109218380E94F1
:10241000741010922A3810922B3881E0809306387D
:1024200080931338A4CF903741F481E0809306382D
:102430008AE79BEA0E945A1085CF9E3691F48091DC
:102440000638813009F04AC00E94F0100E947410D2
:1024500010922A3810922B3880911638811172CF41
:10246000DCCF9337D9F580910638813079F40E941A
:10247000F01010922A3810922B3810920638D8CFCC
:102480002230310519F4953609F4B7CF20ED290F24
:102490008FE9890F2A3010F0863000F5863010F46D
:1024A00029EA290F8091040887FFFCCF909100084A
:1024B00080ED890F3FE9390F8A3010F0363070F423
:1024C000363010F489EA890F90E1299F9001112498
:1024D000822B809312380E946B10AACF80E89BEA6F
:1024E000A9CF8091003890910538909300388927C2
:1024F000909105389095982390930A3890910538DB
:1025000089238093083808951F920F920FB60F9277
:1025100011241F932F933F934F935F936F937F9358
:102520008F939F93AF93BF93CF93DF93EF93FF93DB
:102530001091063811110BC0C0912A38D0912B3858
:102540000E9474102196C0932A38D0932B38809122
:102550002A3890912B384AE0489F9001499F300DCE
:1025600011248091293843E8849FC0011124281741
:10257000390740F0111106C00E94F01010922A385D
:1025800010922B38809128388130A9F48091263818
:102590009091273801968093263890932738843F6E
:1025A000914048F080912704806280932704109224
:1025B00026381092273881E08093960AFF91EF9198
:1025C000DF91CF91BF91AF919F918F917F916F914B
:1025D0005F914F913F912F911F910F900FBE0F90E0
:1025E0001F9018951F920F920FB60F9211242F93E0
:1025F0003F934F938F939F93EF93FF938091243852
:10260000909125388D7F892BA1F4809123388111F9
:1026100038C0E0912238F0E0E859F4458081809399
:10262000C40882E0809306048093050481E08093CF
:1026300023388091080430910538432F4827209192
:102640001F3890912038922794239093203820951A
:10265000242320931F38809583239223892B83275B
:102660008093053881E08093860AFF91EF919F91D6
:102670008F914F913F912F910F900FBE0F901F9010
:1026800018958130B1F6E0912138F0E0EA5AF4452E
:1026900080818093C40882E08093060480930504BF
:1026A00010922338C6CF1F920F920FB60F921124AB
:1026B0002F933F934F935F936F937F938F939F934A
:1026C000AF93BF9380911E38811125C01092380AB4
:1026D0001092390A80912938882359F080E8809334
:1026E000C408A0911938A1112BC010923A0A109277
:1026F0003B0A81E080930B0ABF91AF919F918F912C
:102700007F916F915F914F913F912F910F900FBEED
:102710000F901F90189580911A3890911B38A091B6
:102720001C38B0911D388093360A9093370AB695BD
:10273000A795979587958093380A9093390ACACFC1
:10274000B0E0119620911A3830911B3840911C3816
:1027500050911D380E946F15672F782F892F992768
:1027600060933A0A70933B0AC4CF1F920F920FB640
:102770000F9211248F93EF93FF93E0E0F4E082E057
:102780008683858380E88093C308FF91EF918F91C2
:102790000F900FBE0F901F901895F89492E09093B1
:1027A000010481E08093E30520914004256020939B
:1027B0004004909321049093250450E25093C00864
:1027C00064E06093C1088093C2082091C008216032
:1027D0002093C00828E02093C40838E83093C40848
:1027E0001092123820931404209315042093160499
:1027F00020931704809321049093210423E02093D5
:102800002504F8941092E40523E32093010A8093B1
:102810000A0A25E03DE02093260A3093270A109209
:10282000280A1092290AE6E0FDE0E0932A0AF093D4
:102830002B0A4091000A41604093000A7894F89472
:102840001092810A20938C0A30938D0A8093850A16
:102850008093800A7894F8941092910A20939C0AAD
:1028600030939D0A8093950A8093900A78946093A0
:1028700021042DE635E0209308083093090820EC68
:1028800020930608809300061092010650930206DA
:1028900020E42093080620E32093090690930C0679
:1028A00080930A067894C1E044E6442E552453945C
:1028B00044E2642E41E1742E55E0852E5DE0952EB4
:1028C00066E0262E6DE0362EEE24E394F12CD1E165
:1028D0008091040887FD0E948F110E9471128091DF
:1028E0002438909125388130910509F444C040F096
:1028F000029709F4EFC01092243810922538E8CFDF
:10290000C0932604A0901006B0901106C090120645
:10291000D0901306A092093810910A3816FF09C00A
:10292000809112388F3F29F08F5F809312380E9478
:102930006B1015FF09C080911238882329F081504F
:10294000809312380E946B108091083884FF05C074
:10295000A09212388A2D0E946B108091053884FD58
:1029600003C08A2D0E946B1017FFB2CFE09224386B
:10297000F0922538ADCFC093250440920138509293
:10298000023860920338709204380091123880E265
:10299000089F800111240093103810931138C8014A
:1029A000880F991F080F191F1695079516950795FB
:1029B000D12CC12CC016D10651F50E94F0101092F6
:1029C00013381092063880911338882331F1109211
:1029D0002938C09306388092360A9092370A20929E
:1029E0003A0A30923B0A1092380A1092390AC09380
:1029F0002604809112380E946B10C0931338809186
:102A0000243890912538019709F062CF74CF0E9445
:102A10009D108FEFC81AD80ACDCF8091040887FD8A
:102A20000E948F110E94711280910B3890910C3886
:102A3000009739F0019781F010920B3810920C3802
:102A4000C2CF80910A3887FFBECFC0930638E0928C
:102A50000B38F0920C38B7CF10910A3817FF0CC022
:102A60000E94F01010922A3810922B3810920638DB
:102A700010920B3810920C3816FF14C00E94F01000
:102A80000E94741010922A3810922B3880911638B8
:102A900081111BC010920B3810920C38C09306386D
:102AA000C093133815FF8FCF109218380E947410FE
:102AB00010922A3810922B3810920B3810920C3842
:102AC000C0930638C09313387ECFE0920B38F09253
:102AD0000C38E8CFD0932238D0932138F9CEB7FF05
:102AE0000C9477150E947715821B930B08950E9412
:102AF0008215A59F900DB49F900DA49F800D911DF0
:102B000011240895A29FB001B39FC001A39F700D2F
:102B1000811D1124911DB29F700D811D1124911DE5
:062B20000895F894FFCFB8
:102B26007CD90100E8BE0100D4A50100278E010072
:102B3600CE770100B6620100CE4E0100033C0100D3
:102B4600472A010089190100BC090100D2FA0000D8
:102B5600086B44412311104B000102301C6014160F
:102B66007F7788EBC4C1A39190CB808182B09CE033
:102B76009496FFF72341434B0A00234E41434B0AE9
:012B8600004E
:082B8700FF64012411FF0100AD
:00000001FF
